:020000020000FC
:040000000C94330029
:04000C000C94D90473
:040034000C94C40460
:100040000C949F0481CF9286CCA4A08F8084010859
:100050000100010001010001000103020303030389
:100060000303030303030FEF0DBF08E00EBFF89473
:1000700000E80093610004E0009361000FEF0AB90B
:100080000FEF07B9239A249A259A2098219822984D
:10009000289A299A2A9A01E00093680007E20093BF
:1000A0006B0003E005BD02EB06BD01E000936E00AE
:1000B00003E00093810001E000936F0002EC0093E5
:1000C000850007EF0093840000E00BB90FE008B94A
:1000D000E4E4F0E044915491649174913327332423
:1000E00000E00093000100930101009302010093DE
:1000F0000301009305010093070100930801009399
:10010000090100930A0100930B0100930C0101E027
:10011000009304010093060144245524AA24662474
:1001200077248824992420E028B9789404E60016DE
:1001300011F41C9A002400910C01003081F0013070
:1001400079F0023079F0033061F0043069F0053065
:1001500051F0063051F0073049F0083041F008C046
:1001600030C058C0BDC02AC1AFC122C292C2FBC2BA
:100170004498459800910001E4E4F0E0E00F10E0BD
:10018000F11F449100910101E4E4F0E0E00F10E080
:10019000F11F549100910201E4E4F0E0E00F10E05F
:1001A000F11F649100910301E4E4F0E0E00F10E03E
:1001B000F11F74910CE3101609F013C30E94F203AF
:1001C00010C3449A459800910401E4E4F0E0E00F84
:1001D00010E0F11F449100910501E4E4F0E0E00F2C
:1001E00010E0F11F549100910601E4E4F0E0E00F0B
:1001F00010E0F11F649100910701E4E4F0E0E00FEA
:1002000010E0F11F74910CE3101609F0EAC20E948D
:10021000F203E7C24498459A00910001E4E4F0E05B
:10022000E00F10E0F11F14911F77412F00910101A1
:10023000E4E4F0E0E00F10E0F11F14911F77512F7C
:1002400000910201E4E4F0E0E00F10E0F11F64919E
:1002500000910301E4E4F0E0E00F10E0F11F74917D
:1002600001E0401619F05016E9F0BBC24424639433
:1002700000910001093021F0039500930001B1C203
:1002800000270093000100910101053021F0039542
:1002900000930101A6C20027009301010093000111
:1002A00066249FC255246A9400910001003021F019
:1002B0000A950093000195C209E0009300010091A6
:1002C0000101003021F00A95009301018AC205E086
:1002D0000093010109E0009300010BE3602E81C24D
:1002E00011244498459A00910001E4E4F0E0E00F05
:1002F00010E0F11F449100910101E4E4F0E0E00F0F
:1003000010E0F11F549100910201E4E4F0E0E00FED
:1003100010E0F11F14911F77612F00910301E4E4B5
:10032000F0E0E00F10E0F11F14911F77712F01E052
:10033000401619F0501621F154C2442473940091D0
:100340000301023041F000910201093049F00395A8
:100350000093020146C200910201033051F0F7CF31
:10036000002700930201009103010395009303010C
:1003700038C200270093020100930301772431C2A1
:1003800055247A9400910201003021F00A950093DF
:10039000020127C209E0009302010091030100302D
:1003A00021F00A95009303011CC203E000930201AF
:1003B00002E00093030107E1702E13C2449A459AAC
:1003C00000910401E4E4F0E0E00F10E0F11F14916B
:1003D0001F77412F00910501E4E4F0E0E00F10E009
:1003E000F11F14911F77512F00910601E4E4F0E012
:1003F000E00F10E0F11F649100910701E4E4F0E0E8
:10040000E00F10E0F11F749101E0401619F0501652
:1004100079F1E7C14424EAE5F0E0E30D10E0F11FD3
:10042000149100910501011789F000910401093030
:1004300021F0039500930401D4C100270093040127
:1004400000910501039500930501CBC1EEE4F0E0B6
:10045000E30D10E0F11F149100910401011709F060
:10046000E8CF01E00093040100E000930501B9C169
:10047000552400910501003089F0009104010030FD
:1004800021F00A9500930401ACC109E00093040136
:10049000009105010A9500930501A3C10091040193
:1004A000013009F0EECFEAE5F0E0E30D00E0F01FE7
:1004B000049100930501EEE4F0E0E30D00E0F01F8D
:1004C0000491009304018DC1449A459A01E0009380
:1004D0000401E4E4F0E0E00F10E0F11F449100E0DB
:1004E00000930501E4E4F0E0549100910601E4E496
:1004F000F0E0E00F10E0F11F14911F77612F0091E1
:100500000701E4E4F0E0E00F10E0F11F14911F7721
:10051000712F01E0401619F0501629F162C1339491
:10052000442400910701013041F000910601093097
:1005300049F003950093060154C100910601023071
:1005400051F0F7CF00E000930601009107010395F9
:100550000093070146C101E00093060100E000930B
:10056000070133243EC13A9455240091070100301D
:1005700041F000910601003049F00A950093060110
:1005800030C100910601013051F0F7CF09E000932E
:100590000601009107010A950093070122C102E0BC
:1005A0000093060101E0009307010BE0302E19C112
:1005B00000910801E4E4F0E0E00F10E0F11F449145
:1005C00000910901E4E4F0E0E00F10E0F11F549124
:1005D00000910A01E4E4F0E0E00F10E0F11F149153
:1005E0001F77612F00910B01E4E4F0E0E00F10E0D1
:1005F000F11F14911F77712F04E6201619F4349A15
:10060000359A222401E0401619F0501621F1E9C074
:100610009394442400910B01023041F000910A01AF
:10062000093049F0039500930A01DBC000910A01EB
:10063000033051F0F7CF002700930A0100910B011E
:10064000039500930B01CDC0002700930A0100938E
:100650000B019924C6C09A94552400910A010030D8
:1006600021F00A9500930A01BCC009E000930A0139
:1006700000910B01003021F00A9500930B01B1C0ED
:1006800003E000930A0102E000930B0107E1902EC2
:10069000A8C000910801E4E4F0E0E00F10E0F11FD1
:1006A00014911F77412F00910901E4E4F0E0E00F7D
:1006B00010E0F11F14911F77512F00910A01E4E41B
:1006C000F0E0E00F10E0F11F649100910B01E4E411
:1006D000F0E0E00F10E0F11F749104E6201619F429
:1006E000349A359A222401E0401619F05016E9F0A8
:1006F00078C04424839400910801093021F00395C7
:10070000009308016EC000270093080100910901C1
:10071000053021F003950093090163C00027009381
:1007200009010093080188245CC055248A94009133
:100730000801003021F00A950093080152C009E039
:100740000093080100910901003021F00A950093FF
:10075000090147C005E00093090109E00093080181
:100760000BE3802E3EC000910801E4E4F0E0E00FCE
:1007700010E0F11F14911F77412F00910901E4E46B
:10078000F0E0E00F10E0F11F14911F77512F00915E
:100790000A01E4E4F0E0E00F10E0F11F14911F778C
:1007A000612F00910B01E4E4F0E0E00F10E0F11F95
:1007B00014911F77712F04E6201619F4349A359A94
:1007C000222401E0401619F0501631F00AC04424EA
:1007D00001E0A02E2D9A05C0552400E0A02E2D98F2
:1007E00000C0A4CC1124639401E0A01639F497143E
:1007F00029F4861419F401E0B02E2B9A009100011F
:10080000093021F003950093000198C00027009360
:10081000000100910101053021F0039500930101D1
:100820008DC00027662400930101739401E0A01697
:1008300039F4971429F4861419F401E0B02E2B9A98
:1008400000910301023041F000910201093049F0AA
:1008500003950093020172C000910201033059F028
:10086000F7CF0027009302017394009103010395D1
:100870000093030163C0002700930301009302016A
:100880006624772401E0A01639F4971429F486141D
:1008900019F401E0B02E2B9AEAE5F0E0E30D10E048
:1008A000F11F149100910501011741F0009104011D
:1008B000093079F003950093040140C0EEE4F0E0C4
:1008C000E30D10E0F11F149100910401011751F0A4
:1008D000F1CF0027009304010091050103950093D7
:1008E00005012CC0339401E000930401002700931C
:1008F000050100910701013041F000910601093026
:1009000049F003950093060119C0009106010230D9
:1009100051F0F7CF002700930601009107010395DE
:10092000009307010BC001E000930401009306014E
:1009300000270093050100930701332408950F93C6
:100940002F930FB70F9302EB06BD0394239430301F
:1009500019F421E04BB90EC0313019F422E05BB933
:1009600009C0323019F424E06BB904C028E07BB927
:10097000332701C0339508B10073200F28B90F91B8
:100980000FBF2F910F9118950F930FB70F9302EC94
:100990000093850007EF0093840000910C01003064
:1009A00019F0013009F001C013940F910FBF0F919E
:1009B00018950F930FB70F93189B05C0199B0FC085
:1009C0001A9B1DC025C000910C01083021F0039531
:1009D00000930C011DC0002700930C0119C0009169
:1009E0000C01003029F0013019F001E0402E10C058
:1009F00001E0B01609F00CC0BB242B9809C000918F
:100A00000C01003029F0013019F001E0502E00C037
:080A10000F910FBF0F91189523
:00000001FF
